:020000040800F2
:100000000007002001010008AF28000811260008A1
:10001000AD28000861160008F53A0008000000004D
:10002000000000000000000000000000B7330008DE
:10003000BD16000800000000D12800086134000847
:100040001B0100081B0100081B0100081B01000820
:100050001B0100081B0100081B0100081B01000810
:100060001B0100081B0100081B0100081B01000800
:100070001B0100081B0100081B0100081B010008F0
:100080001B0100081B0100081B0100081B010008E0
:100090001B0100081B0100081B0100081B010008D0
:1000A0001B0100081B0100081B0100081B010008C0
:1000B0001B0100081B0100081B0100081B010008B0
:1000C0001B0100081B0100081B0100081B010008A0
:1000D0001B0100081B010008D53A00081B0100089D
:1000E0001B0100081B0100081B010008DFF80CD0F1
:1000F00000F044F90048004749400008000700208C
:100100000648804706480047FEE7FEE7FEE7FEE7B1
:10011000FEE7FEE7FEE7FEE7FEE7FEE7C134000884
:10012000ED000008202A04DB203A21FA02F0002129
:10013000704721FA02F3D040C2F1200291400843F7
:100140001946704740EA01039B0703D009E008C93C
:10015000121F08C0042AFAD203E011F8013B00F88C
:10016000013B521EF9D27047D2B201E000F8012BD8
:10017000491EFBD270470022F6E710B513460A4627
:1001800004461946FFF7F0FF204610BD421C10F848
:10019000011B0029FBD1801A704710B5002200E036
:1001A000521C835C8C5CA34201D1002BF8D1D8B2E5
:1001B000E1B2401A10BD034611F8012B00F8012BE3
:1001C000002AF9D11846704730B50546002003468D
:1001D00000E05B1C934205D2EC5CC85C201A01D1A4
:1001E000002CF6D130BD2DE9F04791460F468046F0
:1001F0000446002614F8015B2DB100F06BF800688E
:10020000405DC007F6D12B2D02D02D2D18D0641ED5
:100210004A463946204600F061F827B13968A142C4
:1002200001D1C7F8008071054FF002040BD54042A0
:10023000002803DD03F0B2FC0460A007BDE8F087EE
:1002400046F48066E4E70028F8DA03F0A7FC0460CF
:100250006FF00040F2E770B5064603F09FFC0468BB
:1002600005460A2200213046FFF7BDFF2C6070BD15
:100270002DE9F05F0546002092469B4688460646DB
:10028000814640241BE02846414647462246FFF768
:1002900049FF53465A46C01A914110D31146184699
:1002A000224600F07DF82D1A67EB01084F462246E2
:1002B0000120002100F074F817EB00094E41201EC8
:1002C000A4F10104DFDC484631462A464346BDE836
:1002D000F09F000000487047604200082DE9F05F81
:1002E00082460078002715468B460AF10104B9467C
:1002F000302801D09DB113E014F8010B01277828B4
:1003000003D0582801D045B10AE00DB1102D07D116
:100310000027102514F8010B02E0082500E00A254B
:100320000026B0460EE005FB080005FB06F101279C
:1003300001EB10461FFA80F8B6F5803F00D3B946AE
:1003400014F8010B294600F03AF80028EBDABBF16B
:10035000000F05D00FB1641E00E05446CBF80040FA
:10036000B9F1000F06D003F019FC02210160C81E8C
:10037000BDE8F09F48EA0640FAE70000064C074D4A
:1003800006E0E06840F0010394E807009847103465
:10039000AC42F6D3FFF7AEFEB0430008D0430008EE
:1003A000202A04DB203A00FA02F100207047914035
:1003B000C2F1200320FA03F31943904070473A2812
:1003C00000D2303820F02002412A01D3A2F13700B8
:1003D000884201D34FF0FF30704770B514460D4688
:1003E00000F0BEFD2840E04070BD2DE9FC4107460D
:1003F0000020019000901C4615460E46384600F03D
:10040000AFFD47F0C0018DF80010B043AC40204371
:100410008DF80100022201A9684600F0C5FDBDE883
:10042000FC8100005F4910B5024649784FF4C8705E
:100430004FF4A0731D2A71D2DFE802F00F0F0F0FE7
:100440000F0F0F111316180F180F0F0F1A0F310F70
:10045000243335374F670F7A8600012086E001206C
:100460007FE04FF4BE7081E002207FE0AA207DE0B3
:1004700008290DD2DFE801F0040608080A080A0A74
:10048000322073E0192071E028206FE010206DE029
:1004900002F0C0F8002874D040F21B4118E01A2086
:1004A00064E00B2062E0082060E008290AD2DFE85F
:1004B00001F00507040404040404F4E7202055E0D7
:1004C000182053E002F0A6F800286AD040F2574105
:1004D00035A001F099F83BA15EE008290ED2DFE8D3
:1004E00001F0450507090B090404E7E7C8203DE0D2
:1004F00018463BE0502039E0802037E002F08AF8CF
:1005000000284ED040F28541E2E7082909D2DFE811
:1005100001F02D07060604060404EDE732E0E7E7E4
:10052000E4E702F077F800283BD040F2A141CFE7A2
:10053000082936D2DFE801F0061A0505040504048F
:10054000BCE7D7E7642011E0082913D2DFE801F007
:10055000040608080D080D0D342002E01A2000E002
:100560000B20BDE8104001F0AEB80520BDE81040FA
:1005700001F0ACB802F04EF8002812D04FF49B61A5
:10058000A6E70EE002F046F800280AD04FF49C617E
:1005900005A001F039F810A1BDE81040022002F0DA
:1005A0004BB810BDC80000202E2E5C757365725CC0
:1005B0005372635C415438365246323132422E63B4
:1005C00000000000556E6B6E6F776E2050687920CA
:1005D0004D6F646500000000556E6B6E6F776E2086
:1005E00054696D65204D6F646500000070B5D2B030
:1005F00020208DF898000123072280211520FFF785
:10060000F4FE53A0022200684D9000204C904CA9AB
:100610004DA800F0C9FC9DF8314184B17F2C19D957
:1006200001F0F8FF002859D040F2591149A000F01C
:10063000EBFF4FA15FF0020001F0FEFF4EE001F082
:10064000E9FF00284AD04FF4A87142A000F0DCFF77
:100650004CA1EFE701F0DEFF40B122464EA14CA8CD
:1006600003F088FA4CA9012001F0E6FFE21C69467C
:1006700026A800F099FC4F48807B00282ED0072246
:1006800080210620FFF7A9FE00282FD001F0C2FF2D
:1006900018B149A1012001F0CFFF9DF8020000F040
:1006A0000700012829D002280CD001F0B3FF48B17F
:1006B00040F28F1127A000F0A7FF43A15FF00200D6
:1006C00001F0BAFF01F0A6FF40B145A1002001F002
:1006D000B3FFE41CE0B2694600F010FC00230722DF
:1006E00080211520FFF781FE52B070BD01F092FF0E
:1006F0000028F3D03EA101209EE7414D9DF8040063
:10070000E97888421CD03FA14CA803F033FAA4F149
:10071000090216463CA10DF5997003F02BFA07214A
:100720004CA803F00DFA31460DF1090003F008FA68
:10073000022118A003F004FA9DF80400E870C1E754
:1007400001F068FF0028BDD031A10120B8E700000A
:10075000200000002E2E5C757365725C5372635C22
:10076000415438365246323132422E630000000086
:100770004672616D6520746F6F206C617267650DE4
:100780000A0000004E6F2064617461206F6E206665
:1007900072616D650D0A000052656164696E6720C3
:1007A0006672616D65206F662073697A65202569C0
:1007B0000D0A0000C80000204352432050617373AB
:1007C00065640D0A00000000556E6B6E6F776E2039
:1007D0004672616D6520547970650D0A0000000055
:1007E000446174612052656365697665640D0A0031
:1007F000435243204661696C65640D0A00000000A5
:100800000800002052580000253033690D0A00000E
:1008100044726F7070656420447570652046726123
:100820006D650D0A00000000F0B5074601F10B00F0
:10083000C1B00D46C4B21646742103A8FFF79BFC55
:10084000164A07CA8DE80700A01E8DF801008DF832
:1008500004602A4639460DF10900FFF773FC224671
:1008600020A9684600F0A0FB0121022000F050FE04
:100870000020FFF7D7FD0021022000F049FE01F023
:10088000C9FE002807D006A1002001F0D5FE694668
:10089000204600F033FB41B0F0BD000028410008C5
:1008A0000D0A446174612053656E743A200D0A008C
:1008B0000148007870470000C800002010B588B0DB
:1008C0001C2000F04DFB1C4CA0701D2000F048FBCC
:1008D000E0701E2000F044FB20711F2000F040FB60
:1008E000607101F097FE002823D0A27813A168461A
:1008F00003F040F96946012001F09EFEE27814A160
:10090000684603F037F96946012001F095FE227927
:1009100014A1684603F02EF96946012001F08CFE0F
:10092000627915A1684603F025F96946012001F0B6
:1009300083FE08B010BD0000C80000205061727432
:100940002049443A203078253032580D0A00000002
:1009500056657273696F6E3A203078253032580DC3
:100960000A0000004D616E4944303A20203078255D
:100970003032580D0A0000004D616E4944313A2072
:10098000203078253032580D0A00000010B50023C1
:100990001A4601210420FFF728FDFF210E2000F058
:1009A000F1FA002301220221BDE810400420FFF7E4
:1009B0001CBD00001F4810B500780F2810D008DCBF
:1009C0000A2812D2DFE800F00C0C0C1111110C11E6
:1009D000210C16281BD004DC112801D0122804D1C8
:1009E00010BD192822D01C28FAD001F013FE38B10E
:1009F000A02111A000F008FE16A1022001F01CFEAB
:100A00000620BDE8104000F0F9B81620F9E71A4CAE
:100A10002178002019B120700F2000F0A1FA607039
:100A20000007DDD5BDE81040FFF7E0BDBDE8104090
:100A300000F08CBCC80000202E2E5C757365725CC3
:100A40005372635C415438365246323132422E631F
:100A500000000000556E6B6E6F776E2073746174CA
:100A6000652C206368616E67696E6720746F205221
:100A7000585F4F4E0D0A0000080000201C4810B5BA
:100A8000002100F8011B072300F8083B012200F8B1
:100A90000129C0248170047141718271C171427257
:100AA00002728272C272CC2202734273AA228273D1
:100AB000C273017441748174C1740175417581758B
:100AC000C1750376417605228276C27603220277CB
:100AD00041778177C1774FF47A7000F00BF80720E7
:100AE000FFF7A0FC00F086F9BDE8104000F0B8BBAD
:100AF000C800002070B50646362215491548FFF794
:100B000021FB134CE08E134DE886A06BA863A08FE9
:100B1000A887E08FE887112204F1400105F1400029
:100B2000FFF710FB94F8510085F85100606D68657F
:100B30000948012210210660084800F021FFBDE8A5
:100B4000704000224FF40051054800F019BF00002A
:100B500030000020F00000200C00002000080140C0
:100B6000000C0140114810B5007808280FD001F0A2
:100B700051FD40B140F2DA210DA000F045FD13A176
:100B8000022001F059FDBDE8104000F083BB0623B0
:100B9000002207211420FFF728FC0023FF21BDE8D5
:100BA00010401A461320FFF720BC0000C8000020A8
:100BB0002E2E5C757365725C5372635C41543836DB
:100BC0005246323132422E6300000000496E636F9C
:100BD000727265637420537461746520746F20525F
:100BE000756E2046756E6374696F6E3A2052657338
:100BF000657474696E670D0A0000000070B50546E3
:100C000002F06EFF724C207858B901F003FD18B164
:100C100070A1012001F010FD00F022FB2846FFF733
:100C2000EDFF062D78D0092D1CD0162D4BD0192D97
:100C300073D12078192870D0082878D009287ED060
:100C400016286DD006286BD001F0EAFC002868D089
:100C5000192300221F210220FFF7C7FB082000F004
:100C6000D3FB75E02078092857D0082809D006283A
:100C70000FD019280DD016280BD001F0D1FCC0B927
:100C800012E0092300221F210220FFF7AEFB012002
:100C900016E0092300221F210220FFF7A6FB0F20E8
:100CA000FFF7C0FB092077E02078012801D0112848
:100CB00037D1092300221F210220FFF796FB0820CD
:100CC00000F0A2FBEEE7207816287FD0082810D08D
:100CD000092816D0192825D001F0A2FC08B3162344
:100CE00000221F210220FFF780FB082000F08CFB70
:100CF00010E0162300221F210220FFF776FB0A20B6
:100D000006E0162300221F210220FFF76EFB0E20B3
:100D1000FFF788FB16203FE021E057E007E00EE0F8
:100D200018E04FE00920FFF769FF162568E719234F
:100D300000221F210220FFF758FB0A2006E019239A
:100D400000221F210220FFF750FB0E20FFF76AFB55
:100D5000192021E00920FFF751FF192550E72078DD
:100D6000062833D0192805D10920FFF747FF19209D
:100D7000FFF744FF2078082812D0092818D001F086
:100D80004FFCF8B1062300221F210220FFF72DFBA4
:100D9000082000F039FB0620BDE8704002F012BBCD
:100DA000062300221F210220FFF71FFB0C2006E074
:100DB000062300221F210220FFF717FB0E20FFF75A
:100DC00031FBE8E7BDE8704000F0E6BB70BD000015
:100DD000C8000020506F776572206F6E20737461B9
:100DE0007274757020626567696E6E696E670D0A50
:100DF0000000000000B5274889B0007880B101F0FC
:100E000009FC40B14FF4FB7123A000F0FDFB29A1C8
:100E1000022001F011FC09B05DF804EB00F03ABAD1
:100E20000021022000F074FB0121032000F070FB80
:100E30004FF4C87000F04AFC0021032000F068FB6A
:100E40000420FFF7EFFA0121032000F061FB1821D5
:100E5000032000F097F8FFF799FD0321022000F02E
:100E600091F81220FFF7DEFA01F0D4FB58B10E2002
:100E700000F076F802461BA1684602F07BFE694648
:100E8000012001F0D9FB09B008205DF804EB02F065
:100E900099BA0000C80000202E2E5C757365725C44
:100EA0005372635C415438365246323132422E63BB
:100EB00000000000496E636F7272656374205374A2
:100EC00061746520746F2052756E2046756E637470
:100ED000696F6E3A20526573657474696E670D0AA6
:100EE00000000000495251204D61736B205265672C
:100EF0003A203078253032580D0A000070B586B09F
:100F00000E460546002413E0325DA2F120005F2862
:100F100004D30BA1684602F02DFE04E013460BA19A
:100F2000684602F027FE6946002001F085FB641C3C
:100F3000AC42E9DB09A1002001F07EFB06B070BDE8
:100F4000307825303258203A200D0A00307825308C
:100F50003258203A2025630D0A0000000D0A0000D7
:100F60001CB5002120F04000019140F0800000916C
:100F70008DF804000222694601A800F015F89DF8DA
:100F800001001CBD1CB50022009240F0C0008DF88D
:100F9000000001928DF80110022201A9684600F0BC
:100FA00003F89DF805001CBDF8B50F4F14460D461B
:100FB000064600221021384600F0E2FC0B4823468A
:100FC0002A46006800903146094801F089F808482F
:100FD00090F851100229FBD03846BDE8F8400122B4
:100FE000102100F0CDBC0000000801400C000020E2
:100FF000F000002070B5824C207808280ED001F057
:1010000009FB00287ED040F243317EA000F0FCFABC
:1010100083A1BDE87040022001F00EBB657800217D
:10102000032302220120082D6DD2DFE805F004071A
:101030000C0FCDD0D4D8A171E17101E0A171E071A4
:101040002172E37206E0A071E171C2E0A071E1716A
:10105000C3E0E27214F8063F032208210C20FFF7D8
:10106000C4F96378022204210C20FFF7BEF9A378AB
:10107000002203210C20FFF7B8F9E3780522202194
:101080000C20FFF7B2F92379042210210C20FFF77E
:10109000ACF96379002203211620FFF7A6F9A179A4
:1010A0000520FFF76FFFE37900220F211520FFF7DE
:1010B0009CF9237A052220210420FFF796F9A37ECC
:1010C0000422F0212C20FFF790F9E37E0622402134
:1010D0001720FFF78AF9237F01220E212C20FFF72A
:1010E00084F9637F00220F212F20FFF77EF9A37F71
:1010F0000422F0212F20FFF778F900220121E37F5D
:101100002C2001E07AE06EE0FFF76FF994F82030D0
:10111000032208212E20FFF768F994F821300522D8
:1011200020212E20FFF761F9E37A042210211720F5
:10113000FFF75BF9A37A052220211720FFF755F965
:10114000637A072280210C20FFF74FF90422237BCA
:1011500010211046FFF749F9637B02220421172072
:10116000FFF743F9A17B2220FFF70CFFE17B23204F
:10117000FFF708FF217C2020FFF704FF617C21207E
:10118000FFF700FFA17C2420FFF7FCFEE17C252077
:10119000FFF7F8FE217D2620FFF7F4FE617D272072
:1011A000FFF7F0FEA17D2820FFF7ECFEE17D29206E
:1011B000FFF7E8FE217E2A20FFF7E4FE617EBDE80E
:1011C00070402B20FFF7DEBEA071E17109E0A07135
:1011D000E07121723DE7A071E071207239E7A071E2
:1011E000E071227235E701F015FA002806D040F2CE
:1011F000193104A000F008FA12A10AE770BD00003E
:10120000C80000202E2E5C757365725C5372635C9F
:10121000415438365246323132422E6300000000CB
:10122000496E636F727265637420537461746520D4
:10123000746F2052756E2046756E6374696F6E0D03
:101240000A000000556E6B6E6F776E205068792033
:10125000436F6E66696775726174696F6E0D0A001F
:1012600010B501F0D7F918B104A1012001F0E4F99B
:10127000FFF7C0FEBDE81040FFF774BC5265676918
:10128000737465727320696E697469617465640D45
:101290000A000000184810B50078E0B10F281AD0F5
:1012A0000021032000F034F90021022000F030F981
:1012B0000420FFF7B7F80121032000F029F9FFF718
:1012C00065FB1220FFF7AEF8082002F07BF8BDE8BE
:1012D0001040FFF7C5BF01F09DF900280AD040F289
:1012E000272106A000F090F9BDE810400AA10220D5
:1012F00001F0A2B910BD0000C80000202E2E5C75C0
:101300007365725C5372635C4154383652463231B5
:1013100032422E6300000000496E636F7272656393
:101320007420537461746520746F2052756E20466A
:10133000756E6374696F6E3A2054686973206973BF
:10134000207265616C206261640D0A0070B5A6B000
:1013500000208DF88400044602F0C2FB214800788A
:1013600019280BD01920FFF749FC37E09DF88400BD
:101370002855641CE4B2402C01D107E06D4621A839
:1013800001F0B4FA0028F1D1002C29D0164D2146E5
:101390006846AA78FFF748FAA878401CA870082089
:1013A00000F032F806460522E0210220FFF715F88A
:1013B0000546012800D85EB107210CA002F0C0FB51
:1013C0002A460CA122A802F0D5FB052122A801E0A3
:1013D00007210AA002F0B4FB402C01D1FFF7B6FFB1
:1013E00026B070BDC8000020080000204641494CCE
:1013F0002E0D0A00253033640D0A00005355434377
:101400004553530D0A00000070B586B04FEA000640
:1014100000F074F900F164051D4C12E000F06EF963
:10142000A8420ED901F0F6F840B140F2613119A09E
:1014300000F0EAF81EA1012001F0FEF8012006B03C
:1014400070BD20780028E9D0002020700F20FFF721
:1014500087FD6070304212D101F0DCF80028D7D04F
:1014600040F26F310BA000F0CFF8627818A1684607
:1014700002F080FB6946022001F0DEF8C8E701F0C7
:10148000C9F818B118A1012001F0D6F80020D6E75C
:10149000080000202E2E5C757365725C5372635CCD
:1014A000415438365246323132422E630000000039
:1014B00054696D656F7574207768696C6520776114
:1014C0006974696E6720666F72204952510D0A0077
:1014D00057726F6E6720496E746572727570743AD8
:1014E00020253032580D0A004578706563746564B4
:1014F000204952512072656365697665642C2065C8
:10150000786974696E67206C6F6F70210D0A000036
:101510000A4610B5134905281AD2DFE800F0030780
:101520000A0E110008464FF400610BE00846012145
:1015300008E008464FF4005104E00846022101E0AB
:101540000948811502B10122BDE8104000F018BA27
:10155000502106A000F058F8BDE810400BA1022071
:1015600001F06AB8000C0140000801402E2E5C75A5
:101570007365725C5372635C415438365246323143
:1015800032425F48414C2E6300000000556E6B6E86
:101590006F776E2050696E0010B501F03BF840B1D6
:1015A00040F2C92105A000F02FF80BA1022001F0A4
:1015B00043F8BDE81040FFF76DBE00002E2E5C75AD
:1015C0007365725C5372635C4154383652463231F3
:1015D00032422E6300000000496E636F72726563D1
:1015E0007420537461746520746F2052756E2046A8
:1015F000756E6374696F6E3A2052657365747469B1
:101600006E670D0A0000000030B589B00C46054633
:101610000BA1684602F0AEFA6946022001F00CF810
:101620002946022001F008F8224609A1684602F086
:10163000A1FA6946022000F0FFFF09B030BD0000AA
:101640004572726F7220696E2066696C65203A007F
:101650000D0A4F6E206C696E653A2025640D0A00F4
:10166000FEE70FB4BDF80000BDF80210884205D9AE
:10167000BDF80000BDF80210401A06E0BDF80200F7
:10168000BDF80010C0F180000844722802DC01207F
:1016900004B070470220FBE700B589B004A168469A
:1016A000FEF789FD684602F05FF809B000BD000052
:1016B0001B5B324A1B5B3B48000000007047FEE7A3
:1016C0007047FFF7FBB800F067B8000070B5094C31
:1016D00005460020606000F0ABFA0749B0FBF1F06E
:1016E0002168684341F00101216061688142FCD3B7
:1016F00070BD0000001000E040420F0000F046B94D
:1017000010B590F821100024022903D00421816330
:1017100001243DE001680A6822F00E020A600168B7
:101720000A6822F001020A601A4A0168914201D156
:10173000012121E0174A1432914201D110211BE00E
:10174000144A2832914201D1891515E0114A3C32E0
:10175000914201D189140FE00E4A5032914202D1D8
:101760004FF4803108E00B4A6432914202D14FF4C9
:10177000801101E04FF08071064A083A5160012162
:1017800080F82110002180F82010416B01B18847BA
:10179000204610BD0800024070B5044600F0F6F87F
:1017A0000546601C02D004480078044400F0EEF8BE
:1017B000401BA042FAD370BD1C0000202DE9F84F59
:1017C000DFF890A100220AF1040B144601274FF024
:1017D0000F090BF1040E00BF0B6807FA04F52B404C
:1017E000AB4274D1DFF870C14E68A6EB0C086645B9
:1017F0002BD00DDC032E34D005DC36B3012E19D0EE
:10180000022E2FD11BE0112E16D0122E2AD119E054
:10181000B8F5881F19D006DCB8F5803F15D0B8F5AB
:10182000801F1FD111E0B8F5001F0ED0B8F5041FBE
:1018300018D10AE0CA6815E0CA68121D12E0CA6829
:1018400008320FE0CA680C320CE08A682AB1012A1B
:101850004FF0080203D0456104E0042202E0056174
:1018600000E00022FF2B01D8064601E000F104064B
:101870004FEA840501D9A5F12005D6F800C009FA80
:1018800005F82CEA080C02FA05F54CEA050CC6F836
:1018900000C04D68ED0057D5304DAE6946F00106E9
:1018A000AE61AD6924F0030605F0010500952C4DED
:1018B00006EB050CDCF80850A6074FEA167809FA83
:1018C00008F6B543274EB04202D1002610E03BE0B7
:1018D000254EB04201D101260AE0244EB04201D18A
:1018E000022605E0224EB04201D1032600E0042684
:1018F00006FA08F62E43CCF808604D68DAF8006066
:10190000ED03554601D51E4300E09E432E604D6811
:10191000DBF80060AD035D4601D51E4300E09E4349
:101920002E604D68DEF80060ED02754601D51E435D
:1019300000E09E432E604D68AD020E4D2E6801D52D
:101940001E4300E09E432E60641C102CFFF444AF45
:10195000BDE8F88F000401400000111000100240A3
:101960000000014000080140000C0140001001404F
:10197000001401400C040140C2684A40C260704734
:101980000AB1016170470904FBE700000148806863
:10199000704700001C000020024881680278114452
:1019A000816070471C000020074810B5016841F0B5
:1019B00010010160032000F073F8002000F006F829
:1019C00000F024F8002010BD0020024070B50D4D3D
:1019D00004464FF47A712878B1FBF0F00A4909689F
:1019E000B1FBF0F000F068FC48B9102C07D20022DF
:1019F0002146501E00F034F800206C6070BD0120BC
:101A000070BD00001C000020040000200C4808B538
:101A1000816941F001018161816901F00101009159
:101A2000C16941F08051C161C06900F080500090EF
:101A30000448416821F0E06141F00071416008BD57
:101A4000001002400000014000F01F0201219140FF
:101A50004009800000F1E020C0F80011704700004C
:101A6000F0B40E4B1B680C46C3F30223C3F1070509
:101A7000042D00D90425191D072901D2002300E0F7
:101A8000DB1E012606FA05F1491E214099409E40C1
:101A9000761E16403143F0BC00F00ABF0CED00E0AA
:101AA000064900F0070208684FF6FF03184040EAB5
:101AB0000220034A10430860704700000CED00E06C
:101AC0000000FA052DE9F047DFF8548105460E467F
:101AD000D8F8000000F00700B0420CD2D8F800108F
:101AE00021F007013143C8F80010D8F8000000F0D9
:101AF0000700B0426FD128684A4C810712D54007D1
:101B000003D5606840F4E06060602878000703D582
:101B1000606840F4605060606068A96820F0F00080
:101B2000084360602878C00744D06868012816D050
:101B30002168022816D0890700294CDA616821F053
:101B4000030101436160FFF721FF6968074641F225
:101B5000883001290ED00229814618D026E021685C
:101B60008903E9E78901E7E7FFF710FFC11B494552
:101B700001D918E081466068C0F381000128F3D1E3
:101B800018E000BFFFF702FFC11B49450BD8606892
:101B9000C0F381000228F5D10CE000BFFFF7F6FE8C
:101BA000C11B494502D90320BDE8F087606810F0E9
:101BB0000C0FF3D1D8F80010404601F00701B142F4
:101BC0000BD9016821F0070131430160006800F082
:101BD0000700B04201D00120E6E72878400705D58C
:101BE0006068E96820F4E0600843606028780007D6
:101BF00006D56068296920F4605040EAC100606041
:101C000000F03CF86168084AC1F30311515CC84018
:101C1000064908600020FFF7D9FE0020C4E7000055
:101C20000020024000100240104100080400002083
:101C3000014800687047000004000020044805497E
:101C400000684968044AC1F30221515CC8407047EA
:101C5000040000200010024020410008044805490B
:101C600000684968044AC1F3C221515CC84070470A
:101C700004000020001002402041000812A185B09D
:101C80000FC98DE80F0014A0144A00680490516831
:101C9000134801F00C03042B10D0082B0ED1C1F314
:101CA0008343C9031DF803000AD5516804AAC1F390
:101CB0004041515C0A4A5043B0FBF1F005B0704717
:101CC00008494843FAE7000002030405060708092B
:101CD0000A0B0C0D0E0F1010010200000010024044
:101CE00000127A0000093D002DE9F84F0446007803
:101CF000B94DC00748D06868C0F38100012807D0FB
:101D00006868C0F38100022809D16868C00306D55D
:101D10002868800338D5606800286FD034E0606898
:101D2000B0F5803F0BD010B1B0F5A02F11D02868CE
:101D300020F480302860286820F4802002E02868A1
:101D400040F480302860606888B1FFF71FFE0646C7
:101D500009E0286840F480202860F0E7FFF716FECD
:101D6000801B642875D828688003F7D50CE0FFF73E
:101D70000DFE064605E000BFFFF708FE801B642845
:101D8000F0D828688003F7D42078944E80074FF06D
:101D900001094FF000083BD5686810F00C0F07D020
:101DA0006868C0F38100022809D16868C00306D4BE
:101DB0002868800714D5206901281FD110E0206908
:101DC000B0B1C6F80090FFF7E1FD074605E000BF9F
:101DD000FFF7DCFDC01B0228C4D828688007F7D5B0
:101DE0002868616920F0F80040EAC10028600FE02F
:101DF000C6F80080FFF7CAFD074606E0E9E000BF2D
:101E0000FFF7C4FDC01B022823D828688007F7D439
:101E1000207800072CD57248A169D9B1C0F800908C
:101E2000FFF7B4FD074604E0FFF7B0FDC01B022832
:101E30000FD8686A8007F7D56A484FF4FA510068EE
:101E4000B0FBF1F0009000BF0098411E0091FAD263
:101E50000EE080E0C0F80080FFF798FD074604E040
:101E6000FFF794FDC01B022875D8686A8007F7D475
:101E70002078400760D5E8690027C00008D4E869E9
:101E800040F08050E861E869012700F08050009040
:101E900055480168C90513D40168834641F480712F
:101EA0000160FFF773FD824606E000BFFFF76EFD9D
:101EB000A0EB0A0064284ED8DBF80000C005F5D579
:101EC000E06801280AD008B1052813D0286A20F05C
:101ED00001002862286A20F0040002E0286A40F02D
:101EE00001002862E06841F2883B98B1FFF74EFD9F
:101EF00082460BE0286A40F004002862EEE700BF4B
:101F0000FFF744FDA0EB0A0159455AD8286A80071B
:101F1000F6D50CE0FFF73AFD824605E0FFF736FD07
:101F2000A0EB0A0159454CD8286A8007F6D41FB1A6
:101F3000E86920F08050E861E06988B36968C1F31E
:101F40008101022945D00228C6F8608004D0FFF73D
:101F50001DFD044638E034E0FFF718FD074604E0B5
:101F6000FFF714FDC01B02282BD828688001F7D486
:101F7000206AB0F5803F05D16868A16820F4003080
:101F800008436860D4E908010843696821F47411C2
:101F900008436860C6F86090FFF7F8FC044606E066
:101FA00015E000BFFFF7F2FC001B022809D82868E3
:101FB0008001F7D50BE000BFFFF7E8FC001B02280B
:101FC00002D90320BDE8F88F28688001F4D40020EE
:101FD000F8E70120F6E7000000100240000042424E
:101FE00080044242040000200070004070B50400EC
:101FF00005D00025A56294F8510010B104E001203D
:1020000070BD204600F034F8022084F851002068AA
:10201000016821F040010160D4E901010843D4E9DD
:1020200003121143084361690843218B01F40071D5
:102030000843E1690843216A0843A16A084321680B
:102040000860A069042101EA1040616A0843216820
:1020500048602168E06A08612068C16921F4006174
:10206000C1616565012084F85100002070BD000049
:1020700030B585B000240094019402940394006864
:102080001449884223D11448816941F48051816107
:10209000816901F480510491816941F004018161F9
:1020A00080690E4D00F004000490A02000900220F2
:1020B00001900320039069462846FFF77FFB4020EC
:1020C000CDE90004694628460294FFF777FB05B086
:1020D00030BD000000300140001002400008014007
:1020E0002DE9F84F044690F8500000260A9F9A46C2
:1020F00093460D464FF0010801280ED0012084F8C8
:102100005000FFF743FC814694F8510061680128B4
:102110000CD0B1F5827F07D102E00220BDE8F88F34
:10212000A16809B9042801D00226BDE055B1BBF170
:10213000000F07D0BAF1000F04D094F85100012825
:1021400002D004E00126AFE0052084F85100002011
:102150006065C4F838B0A4F83EA0A4F83CA025639C
:10216000A4F836A0A4F834A0206460642068016854
:10217000490603D4016841F040010160E068B0F510
:10218000006F606804D0E8B3E08E01283BD06AE0BD
:1021900010B1E08E01282ED1216835F8020BC860FD
:1021A000E08E401EE08626E0B8F1000F0DD0E08EF4
:1021B00058B120688168890707D535F8021BC160CE
:1021C000E08E401EE0864FF00008E08F58B1206896
:1021D0008168C90707D0C0682BF8020BE08F401E4A
:1021E000E0874FF00108781C05D0FFF7CFFBA0EB8C
:1021F0000900B84246D2E08E0028D5D1E08F0028F1
:10220000D2D136E0FFE7216815F8010B0873E08EA4
:10221000401EE08627E000BFB8F1000F0DD0E08E31
:1022200058B120688168890707D515F8011B01732B
:10223000E08E401EE0864FF00008E08F58B1206825
:102240008168C90707D0C0680BF8010BE08F401EFA
:10225000E0874FF00108781C05D0FFF797FBA0EB53
:102260000900B8420ED2E08E0028D5D1E08F0028B8
:10227000D2D13B46012202212046CDF8009001F048
:102280004FF808B103260FE04A463946204601F0D0
:1022900037F818B101262020606505E0A06818B95C
:1022A0002068C16880680090012084F851000020F7
:1022B00084F85000304631E710B5401EB0F1807F01
:1022C00001D3012010BD4FF0E02460610F216017A1
:1022D00000F0EEFA0020A06107202061002010BD70
:1022E0007047000070B5026804461068D1685369F1
:1022F00010F00F0F50D003F0010501F49076354334
:102300005DD0C20705D0CA0503D5E26B42F00102D9
:10231000E263420705D5DA0703D0E26B42F002021E
:10232000E263820705D5DA0703D0E26B42F00402CC
:10233000E263020705D5DA0703D0E26B42F0080238
:10234000E263E26B002A33D0800604D5880602D50A
:10235000204601F057FA20684069E16BC0F3801015
:10236000090700D428B3204601F03EFA20684169ED
:1023700049061AD5416921F040014161606BA0B165
:102380001B494163606BFFF7BBF9002810D0606BFD
:10239000416BBDE870400847830610D58B060ED50B
:1023A0002046BDE8704001F02DBA2046FFF798FFA7
:1023B00070BD2046FFF794FF0020E06370BD030668
:1023C00006D50B0604D52046BDE8704001F01EBBC3
:1023D0004006F3D54806F1D5D168204621F04001EA
:1023E000D160202184F8391000F011F970BD00008F
:1023F000D937000870B5040004D094F839000025DE
:1024000010B106E0012070BD84F83850204600F07D
:1024100023F8242084F839002068C16821F4005191
:10242000C160204601F03AFA2068016921F4904128
:1024300001612068416921F02A0141612068C16879
:1024400041F40051C160E563202084F8390084F82C
:102450003A00002070BD000030B585B00024009423
:102460000194029403940068184988422BD11848BB
:10247000C16941F40031C161C16901F400310491C5
:10248000816941F0040181618069124D00F004000E
:1024900004900420009002200190032003906946DC
:1024A0002846FFF78BF90820CDE900046946284645
:1024B0000294FFF783F9002211462620FFF7D0FA95
:1024C0002620FFF7C1FA05B030BD000000440040EF
:1024D000001002400008014090F83A30202B22D131
:1024E000F9B1F2B190F83830012B1CD081628285AD
:1024F000C2850021C163222280F83A2080F838107A
:102500000168CA6842F48072CA6001684A6942F090
:1025100001024A610068C16841F02001C1600020E9
:10252000704701207047022070470000074910B52E
:1025300081420AD10648007800F0DEF9BDE810407B
:10254000012203490148FFF7C7BF10BD88000020E2
:10255000000000202DE9F843044690F839001F469A
:1025600016460D46202850D1A5B19EB194F83800EA
:1025700001284AD0012084F838004FF00008C4F840
:102580003C80212084F83900FFF700FAA6848146B8
:10259000E68426E00120BDE8F883E08C401EE0845C
:1025A000A0684B46B0F5805F4FF000024FF080010D
:1025B0002046009703D001F05AFAE8B90DE001F087
:1025C00056FAC8B928882168C0F308004860206915
:1025D00008B16D1C05E0AD1C03E0216815F8010B86
:1025E0004860E08C0028D8D14B460022402120468C
:1025F000009701F03CFA08B10320CCE7202084F8D2
:10260000390084F838800020C5E70220C3E770470E
:10261000FEE700000148007870470000110000202C
:1026200004480078022803D0122801D00020704707
:1026300001207047C800002010B50C460846FDF781
:10264000A5FD01462046BDE8104001F079BA000022
:1026500070B588B00024154D1FE000BF55F820105C
:102660006846FDF7A8FD684601F07EF810A16846AF
:10267000FDF7A1FD684601F077F86846B168FDF7FF
:102680009AFD684601F070F80AA16846FDF793FDCF
:10269000684601F069F8641CE4B204EB440005EB01
:1026A000800671680029D9D108B070BD3441000896
:1026B000202D20000D0A00002DE9F04385B00025F3
:1026C00039480095019502950395816941F02001F3
:1026D0008161816901F020010491816941F0040167
:1026E0008161816901F004010491816941F008016F
:1026F00081618069DFF8B49000F008000490012245
:1027000010214846FFF73CF9DFF8A4804CF202069E
:10271000012231464046FFF733F94FF400570022BB
:1027200039464046FFF72CF941F20100CDE900059A
:102730000124694602944846FFF740F81020CDE98D
:1027400000040294694648460394FFF737F8194895
:102750006946CDE9004040460294FFF72FF8022079
:10276000CDE90240CDE9006469464046FFF726F80E
:10277000E002CDE90005694602944046FFF71EF8E5
:102780000097CDE90145694640460394FFF716F8E6
:102790002002CDE90005694648460295FFF70EF88C
:1027A00005B0BDE8F08300000010024000080140C1
:1027B000000C014000001110104810B50E490160D6
:1027C0004FF48271416000218160C1604FF400725A
:1027D0000161C0E905122022C0E90721416281623E
:1027E0000A21C162FFF702FC002803D0BDE81040B7
:1027F000FEF765BF10BD0000003001403000002032
:102800000C4810B50A4901604FF4E13141600021E4
:1028100081600C22C160C0E904128161C161FFF7CF
:10282000E9FD002803D0BDE81040FEF748BF10BD09
:1028300000440040880000200148007870470000F4
:1028400012000020094810B5007830B1012809D0E5
:10285000022802D0032805D102E000F05FFC01E06D
:1028600000F052FEBDE81040FEF7A4B812000020B0
:1028700010B5FEF703F90948007848B1012807D0E0
:10288000022805D0032807D1BDE8104000F044BE5F
:10289000BDE8104000F0FABC10BD0000120000209E
:1028A00001490870FFF7E4BF12000020FEE77047FF
:1028B0000907090E002806DA00F00F0000F1E020F9
:1028C00080F8141D704700F1E02080F80014704774
:1028D000704700000146014801F0ECBB50020020A7
:1028E0000146014801F0E6BB4801002001460148CD
:1028F00001F0E0BBCC01002010B504460146BEB09B
:10290000FE4801F0EBFB012802D000203EB010BDD4
:10291000FB48007838B1002000908DF8004002217B
:10292000684601F00DF9F54830F8041BADF8741055
:1029300030F8021CADF8761001788DF878104178E7
:102940008DF8791081788DF87A10C1788DF87B1028
:1029500001798DF87C1041798DF87D1081798DF8A1
:102960007E10C1798DF87F10017A8DF88010417A40
:102970008DF88110817A8DF88210C17A8DF88310DC
:10298000017B8DF88410417B8DF88510817B8DF85B
:102990008610C17B8DF88710017C8DF88810417CF2
:1029A0008DF88910817C8DF88A10C17C8DF88B1090
:1029B000017D8DF88C10417D8DF88D10817D8DF815
:1029C0008E10C17D8DF88F10017E8DF89010417EA4
:1029D0008DF89110817E8DF89210C17E8DF8931044
:1029E000017F8DF89410417F8DF89510817F8DF8CF
:1029F0009610C17F8DF8971090F820108DF89810E0
:102A000090F821108DF8991090F822108DF89A10F6
:102A100090F823108DF89B1090F824108DF89C10DE
:102A200090F825108DF89D1090F826108DF89E10C6
:102A300090F827108DF89F1090F828108DF8A010AE
:102A400090F829108DF8A11090F82A108DF8A21096
:102A500090F82B108DF8A31090F82C108DF8A4107E
:102A600090F82D108DF8A51090F82E108DF8A61066
:102A700090F82F108DF8A71090F830108DF8A8104E
:102A800090F831108DF8A91090F832108DF8AA1036
:102A900090F833108DF8AB1090F834108DF8AC101E
:102AA00090F835108DF8AD1090F836108DF8AE1006
:102AB00090F837108DF8AF1090F838108DF8B010EE
:102AC00090F839108DF8B11090F83A108DF8B210D6
:102AD00090F83B108DF8B31090F83C108DF8B410BE
:102AE00090F83D108DF8B51090F83E108DF8B610A6
:102AF00090F83F108DF8B71090F840108DF8B8108E
:102B000090F841108DF8B91090F842108DF8BA1075
:102B100090F843108DF8BB1090F844108DF8BC105D
:102B200090F845108DF8BD1090F846108DF8BE1045
:102B300090F847108DF8BF1090F848108DF8C0102D
:102B400090F849108DF8C11090F84A108DF8C21015
:102B500090F84B108DF8C31090F84C108DF8C410FD
:102B600090F84D108DF8C51090F84E108DF8C610E5
:102B700090F84F108DF8C71090F850108DF8C810CD
:102B800090F851108DF8C91090F852108DF8CA10B5
:102B900090F853108DF8CB1090F854108DF8CC109D
:102BA00090F855108DF8CD1090F856108DF8CE1085
:102BB00090F857108DF8CF1090F858108DF8D0106D
:102BC00090F859108DF8D11090F85A108DF8D21055
:102BD00090F85B108DF8D31090F85C108DF8D4103D
:102BE00090F85D108DF8D51090F85E108DF8D61025
:102BF00090F85F108DF8D71090F860108DF8D8100D
:102C000090F861108DF8D91090F862108DF8DA10F4
:102C100090F863108DF8DB1090F864108DF8DC10DC
:102C200090F865108DF8DD1090F866108DF8DE10C4
:102C300090F867108DF8DF1090F868108DF8E010AC
:102C400090F869108DF8E11090F86A108DF8E21094
:102C500090F86B108DF8E31090F86C108DF8E4107C
:102C600090F86D108DF8E51090F86E108DF8E61064
:102C700090F86F108DF8E71090F870108DF8E8104C
:102C800090F871108DF8E91090F872108DF8EA1034
:102C900090F873108DF8EB1090F874108DF8EC101C
:102CA00090F875108DF8ED1090F876108DF8EE1004
:102CB00090F877108DF8EF1090F878108DF8F010EC
:102CC00090F879108DF8F11090F87A108DF8F210D4
:102CD00090F87B108DF8F31090F87C108DF8F410BC
:102CE00090F87D108DF8F51090F87E108DF8F610A4
:102CF00090F87F008DF8F700742203E05002002066
:102D00001000002021A96846FDF71CFA1DAC94E8CC
:102D10000F00FEF7A6FCF9E500B50146BFB0FE487E
:102D200001F0DCF9012802D000203FB000BDFA48D4
:102D300030F8041BADF8741030F8021CADF87610B2
:102D400001788DF8781041788DF8791081788DF8B8
:102D50007A10C1788DF87B1001798DF87C1041795B
:102D60008DF87D1081798DF87E10C1798DF87F10F6
:102D7000017A8DF88010417A8DF88110817A8DF872
:102D80008210C17A8DF88310017B8DF88410417B0D
:102D90008DF88510817B8DF88610C17B8DF88710AA
:102DA000017C8DF88810417C8DF88910817C8DF82C
:102DB0008A10C17C8DF88B10017D8DF88C10417DBF
:102DC0008DF88D10817D8DF88E10C17D8DF88F105E
:102DD000017E8DF89010417E8DF89110817E8DF8E6
:102DE0009210C17E8DF89310017F8DF89410417F71
:102DF0008DF89510817F8DF89610C17F8DF8971012
:102E000090F820108DF8981090F821108DF89910F6
:102E100090F822108DF89A1090F823108DF89B10DE
:102E200090F824108DF89C1090F825108DF89D10C6
:102E300090F826108DF89E1090F827108DF89F10AE
:102E400090F828108DF8A01090F829108DF8A11096
:102E500090F82A108DF8A21090F82B108DF8A3107E
:102E600090F82C108DF8A41090F82D108DF8A51066
:102E700090F82E108DF8A61090F82F108DF8A7104E
:102E800090F830108DF8A81090F831108DF8A91036
:102E900090F832108DF8AA1090F833108DF8AB101E
:102EA00090F834108DF8AC1090F835108DF8AD1006
:102EB00090F836108DF8AE1090F837108DF8AF10EE
:102EC00090F838108DF8B01090F839108DF8B110D6
:102ED00090F83A108DF8B21090F83B108DF8B310BE
:102EE00090F83C108DF8B41090F83D108DF8B510A6
:102EF00090F83E108DF8B61090F83F108DF8B7108E
:102F000090F840108DF8B81090F841108DF8B91075
:102F100090F842108DF8BA1090F843108DF8BB105D
:102F200090F844108DF8BC1090F845108DF8BD1045
:102F300090F846108DF8BE1090F847108DF8BF102D
:102F400090F848108DF8C01090F849108DF8C11015
:102F500090F84A108DF8C21090F84B108DF8C310FD
:102F600090F84C108DF8C41090F84D108DF8C510E5
:102F700090F84E108DF8C61090F84F108DF8C710CD
:102F800090F850108DF8C81090F851108DF8C910B5
:102F900090F852108DF8CA1090F853108DF8CB109D
:102FA00090F854108DF8CC1090F855108DF8CD1085
:102FB00090F856108DF8CE1090F857108DF8CF106D
:102FC00090F858108DF8D01090F859108DF8D11055
:102FD00090F85A108DF8D21090F85B108DF8D3103D
:102FE00090F85C108DF8D41090F85D108DF8D51025
:102FF00090F85E108DF8D61090F85F108DF8D7100D
:1030000090F860108DF8D81090F861108DF8D910F4
:1030100090F862108DF8DA1090F863108DF8DB10DC
:1030200090F864108DF8DC1090F865108DF8DD10C4
:1030300090F866108DF8DE1090F867108DF8DF10AC
:1030400090F868108DF8E01090F869108DF8E11094
:1030500090F86A108DF8E21090F86B108DF8E3107C
:1030600090F86C108DF8E41090F86D108DF8E51064
:1030700090F86E108DF8E61090F86F108DF8E7104C
:1030800090F870108DF8E81090F871108DF8E91034
:1030900090F872108DF8EA1090F873108DF8EB101C
:1030A00090F874108DF8EC1090F875108DF8ED1004
:1030B00090F876108DF8EE1090F877108DF8EF10EC
:1030C00090F878108DF8F01090F879108DF8F110D4
:1030D00090F87A108DF8F21090F87B108DF8F310BC
:1030E00090F87C108DF8F41090F87D108DF8F510A4
:1030F00090F87E108DF8F61090F87F008DF8F700AC
:10310000742221A96846FDF71DF80DF1740C9CE8A6
:103110000F00FEF7A6FA08E6CC010020F8B54E4CE9
:103120004E4E0025E078002849D001287DD156E098
:1031300060789DF8001031543118401CC0B24D70B9
:10314000607002281AD3311811F8022C0D2A15D1FB
:1031500011F8011C0A2911D1022813D0022240A122
:103160003E48FDF731F86570A8B16846FFF7B2FB3D
:103170000028FAD107213BA000F0E2FC60780A2881
:103180001DD112E065706846FFF7A4FB0028FAD154
:10319000072136A0F0E70120E0707571B01CFDF743
:1031A0005AF8A070FFF7BAFFF8BD65706846FFF7E0
:1031B00091FB0028FAD107212EA000F0C1FC68463F
:1031C000FFF788FB0028B3D1FFF736FB20700228F9
:1031D0002ED1FDF76DFB16282AD0162024E0684674
:1031E000FFF778FB30B19DF80000FFF795FDA08850
:1031F000401CA080A088A178884219D1A580E570E4
:1032000007211EA000F09CFC6846FFF763FB002826
:10321000FAD1FFF711FB2070022800D028B9FDF782
:1032200047FB192804D0192000E001E0FDF7E6FC77
:103230006846FFF755FB58B1052112A001E00121B6
:10324000684600F07DFC6846FFF74AFB0028F6D18F
:1032500000F03AF8F8BD000014000020D40200206D
:103260005458000045523030310D0A00434C45415E
:10327000520D0A0045523030320D0A004F4B2E2EAF
:103280002E0D0A004652414D4500000010B50020A9
:1032900000F092F8FFF7D0FA28B1012801D00228F7
:1032A00006D1162000E01920BDE81040FDF7A6BCAD
:1032B00010BD0120FFF7F4BA0220FFF7F1BA002099
:1032C000FFF7EEBAFDF792B97047000000B589B07C
:1032D00010220021FCF787FFC0B2FDF741FE024635
:1032E00004A1684600F046FC684600F03DFA09B0CB
:1032F00000BD00003078253032580D0A0000000073
:1033000038B50B46009204460022802100F008F8F0
:10331000002804D0606D40F020006065032038BDB7
:103320002DE9F0411D4617460E460446DDF818808B
:1033300035E0681C33D02DB1FEF728FBA0EB080068
:10334000A8422CD32068416821F0E0014160606808
:10335000B0F5827F0BD1A068B0F5004F02D0B0F578
:10336000806F04D12068016821F040010160A06AEB
:10337000B0F5005F0AD1206801684DF6FF72114078
:1033800001602068016841F400510160012084F867
:103390005100002084F850000320BDE8F08120682F
:1033A000806836EA000004D00020B842C1D1002075
:1033B000F3E70120F9E77047014908707047000002
:1033C0001000002010B5044600F08AFB0D4800787C
:1033D000A0420DD0FFF71EF940B140F283310AA0A0
:1033E000FEF712F90FA10220FFF726F9002010BD09
:1033F000FFF710F918B114A10120FFF71DF9012002
:1034000010BD0000C80000202E2E5C757365725C34
:103410005372635C415438365246323132422E6325
:10342000000000005374617465204368616E676535
:10343000204661696C656420547279696E67204129
:103440006761696E0D0A00005374617465204368FA
:10345000616E67652053756363657373210D0A00A0
:10346000FEF79ABA30B58FB028216846FCF783FE84
:1034700014210AA8FCF77FFE01210804CDE9001001
:103480000024029402250491CDE907504FF4E01086
:1034900009906846FEF728FC00B1FEE70F20CDE951
:1034A0000A054FF48060CDE90C4002210AA80E9471
:1034B000FEF708FB002800D0FEE70FB030BD00008B
:1034C0000D48016841F00101016041680B4A11405B
:1034D000416001680A4A11400160016821F48021BD
:1034E0000160416821F4FE0141604FF41F018160D9
:1034F0000449C00308607047001002400000FFF854
:10350000FFFFF6FE08ED00E010B5FFF7DDFEBDE8B9
:10351000104000F035B8000000B589B01920FDF763
:103520006DFB0BA16846FCF746FE684600F01CF9EF
:103530000AA16846FCF73FFE684600F015F90FA1A6
:103540006846FCF738FE684600F00EF909B000BD89
:103550001B5B324A1B5B3B4800000000496E7465F0
:1035600072616374697665205465726D696E616C11
:10357000204D6F64653A0D0A000000000D0A3E0000
:103580002DE9F0419EB0594D0024594E24E0287891
:10359000202816D29DF8701031543218401C5470F7
:1035A000B04628700D2901D00A2915D12C700027AA
:1035B0008DF800403E463D468DF816408DF82C4073
:1035C0002EE0FFF727F838B1BC214AA0FEF71CF81F
:1035D0004EA10220FFF730F81CA8FFF77BF9002866
:1035E000D5D11EB0BDE8F08118F806000D2815D021
:1035F0000A2813D020280ED02E280CD007EB470124
:1036000001EBC702694601EB4201485548196D1CA0
:103610004470EDB202E07F1CFFB20025761CF6B2CA
:103620003348FCF7B3FDB042DED8FEF7F3FF0100EC
:103630000DF116060DF12C0823D03BA111A8FCF7C3
:10364000BAFD11A90020FEF7F7FF69460020FEF73A
:10365000F3FF38A111A8FCF7AEFD11A90020FEF779
:10366000EBFF31460020FEF7E7FF35A111A8FCF77C
:10367000A2FD11A90020FEF7DFFF41460020FEF762
:10368000DBFF00256846FCF781FD304F40B9A8E715
:1036900057F820106846FCF780FDC8B16D1CEDB2EC
:1036A00005EB450007EB800149680029F0D1002DAA
:1036B00097D01CA111A8FCF77EFD11A800F054F8CA
:1036C00023A111A8FCF777FD11A800F04DF888E7B9
:1036D00005EB450007EB80004146426830469047C5
:1036E0003E208DF844008DF84540EDE71A0000209B
:1036F000DE0200202E2E5C757365725C5372635C73
:103700005465726D696E616C2E630000436F6D6D60
:10371000616E6420737472696E6720746F6F206CC1
:10372000617267650D0A00000D0A417267303A2028
:103730000D0A00000D0A417267313A200D0A00009F
:103740000D0A417267323A200D0A00003441000828
:103750004E6F20436F6D6D616E6420466F756E64B1
:10376000200D0A3E0000000010B50446FCF70EFDD7
:1037700001462046BDE8104000F0E2B930B50B46E6
:10378000054689B00A2200211846FCF72CFDC4B278
:10379000102200212846FCF726FDC0B22246002157
:1037A000FCF71BFE024604A1684600F0E3F96846F8
:1037B000FFF7DAFF09B030BD25690D0A00000000EF
:1037C000AFF300800348017809B1002100E0012136
:1037D000017070471100002010B5406A0021C185BA
:1037E000C184FEF77DFD10BD0168CA6822F49072A5
:1037F000CA6001684A6922F001024A61202180F80A
:103800003A10704710B590F83A10222901D00220E2
:1038100010BD8168B1F5805F11D001690029016890
:103820001FD0496801F07F03816A4A1C82620B70D5
:10383000C18D491E0904090CC18518D02BE002690D
:10384000816A002A0268526805D0D2B20A80816A71
:10385000491C8162ECE7C2F308020A80816A891C74
:10386000F7E74A68816A4B1C83620A70E0E70168E7
:10387000CA6822F02002CA600168CA6822F4807215
:10388000CA6001684A6922F001024A61202180F879
:103890003A10FEF74BFE002010BD00002DE9F0416C
:1038A000044600680169E26821F440511143016156
:1038B0002169A0680843616908432168CA6841F228
:1038C0000C639A430243CA6020684169A26921F4EB
:1038D0004071114341614C49206864253226884279
:1038E0003CD1FEF7BBF900EBC00101EB00106168B1
:1038F0008900B0FBF1F7FEF7B1F900EBC00101EB75
:1039000000106168B0468900B0FBF1F0B0FBF5F043
:103910006FF01801484307EB800106EB0110B0FB84
:10392000F5F000F0F006FEF799F900EBC00101EBAD
:10393000001061688900B0FBF1F0B0FBF5F006EB18
:103940000016FEF78BF900EBC00101EB0010616877
:103950008900B0FBF1F7FEF781F93BE0FEF76EF965
:1039600000EBC00101EB001061688900B0FBF1F7CA
:10397000FEF764F900EBC00101EB00106168B0468E
:103980008900B0FBF1F0B0FBF5F06FF0180148438F
:1039900007EB800106EB0110B0FBF5F000F0F0063C
:1039A000FEF74CF900EBC00101EB001061688900E3
:1039B000B0FBF1F0B0FBF5F006EB0016FEF73EF9B8
:1039C00000EBC00101EB001061688900B0FBF1F76A
:1039D000FEF734F900EBC00101EB001061688900CB
:1039E000B0FBF1F0B0FBF5F06FF01801484307EBC6
:1039F000800108EB0110B0FBF5F0216800F00F002A
:103A000030448860BDE8F0810038014090F83910FA
:103A1000212901D0022070478168B1F5805F016AD9
:103A20000BD04A1C0262026809785160C18C491EA1
:103A30000904090CC1840ED017E009880268C1F39B
:103A40000801516001690029016A02D0491C016224
:103A5000ECE7891CFBE70168CA6822F08002CA60B3
:103A60000068C16841F04001C160002070472DE945
:103A7000F041984617460E460446069D1DE0681C18
:103A80001BD02DB1FDF782FFA0EB0800A84214D98E
:103A90002068C16821F4D071C1602068416921F0BB
:103AA00001014161202084F8390084F83A000020A7
:103AB00084F838000320BDE8F0812068006836EA09
:103AC000000004D00020B842D9D00020F3E7012044
:103AD000F9E700000148FEF705BC0000880000205F
:103AE00010B50120FDF73CFA0149087010BD000037
:103AF000C8000020FEE7000030B50B46054689B03F
:103B0000102200211846FCF76EFBC4B210220021DF
:103B10002846FCF768FBC0B22146FDF733FA02469F
:103B200004A1684600F026F86846FFF71DFE09B0BC
:103B300030BD00003078253032580D0A00000000FA
:103B40008AB201464FF6FF730148FEF703BD00003D
:103B5000880000200FB4054B10B503A9044A029851
:103B600000F030F810BC5DF814FB00003140000894
:103B7000280000200FB4084B10B504A902AA03982E
:103B800000F020F8044602A9002000F04CFA20467C
:103B900010BC5DF814FB0000274000080048704787
:103BA0002C00002002E008C8121F08C1002AFAD128
:103BB00070477047002001E001C1121F002AFBD1AD
:103BC000704700002DE9FF4F8DB00F4605460026D7
:103BD00006E025280BD0DDE90F1290476D1C761CFE
:103BE00028780028F5D111B03046BDE8F08F0024C8
:103BF000A246A1460122EC4900E0044315F8013F2A
:103C0000203B02FA03F00842F7D128782A2810D086
:103C10006FF02F022878A0F13001092914D80AEB9F
:103C20008A0102EB410144F0020400EB010A6D1C21
:103C3000F0E701CF5FEA000A03D544F40054CAF16B
:103C4000000A44F002046D1C28782E2817D115F8BC
:103C5000010F44F004042A280ED06FF02F022878B8
:103C6000A0F1300109290AD809EB890102EB4101D1
:103C700000EB01096D1CF2E757F8049B6D1C2878D6
:103C80006C280FD006DC4C2817D068280DD06A2885
:103C900014D104E0742810D07A280FD10DE044F438
:103CA00000140AE044F4801401E044F440146978FC
:103CB000814202D104F580146D1C6D1C2A786E2A95
:103CC0001FD00CDC632A31D004DC002A8BD0582AA8
:103CD00011D1A3E0642A68D0692A0CD165E0732A67
:103CE0002ED004DC6F2A73D0702A04D19BE0752A91
:103CF0006FD0782A6ED01046DDE90F129047761CFF
:103D000050E1C4F30250022806D0032809D0042849
:103D100001CF09D0066045E101CFF117C0E900618C
:103D200040E101CF06803DE106703BE117F8040B4E
:103D30008DF8000000208DF80100EB46012003E023
:103D400057F804BB4FF0FF3061074FF0000102D479
:103D50000DE008F10101884649450FDA8045F8DB9E
:103D60001BF808100029F4D108E008F10101884689
:103D70008142FADB1BF808100029F6D1DDE90F2398
:103D8000AAEB08008146214600F036F9304400EBEA
:103D9000080604E0DDE90F121BF8010B9047B8F1AB
:103DA0000108F7D221464846F7E00A21C4F302533E
:103DB0004FF0000B0891022B04D001CFC117032B49
:103DC00009D00AE0FF1D27F00707F7E8020108E025
:103DD00032E01FE020E000B2C117042B01D140B255
:103DE000C117031E71F1000307DA4FF0000CD0EB8E
:103DF0000C006CEB01012D2302E0230504D52B23DD
:103E00008DF82430012303E0E30701D02023F7E7F6
:103E1000984658E00A2110E010210EE010204FF0E3
:103E2000000B08900CE010214FF0000B44F004044C
:103E30004FF00809089103E008214FF0000B0891AA
:103E4000C4F30253022B04D001CF0021032B06D070
:103E500006E0FF1D27F00707F7E8020103E080B244
:103E6000042B00D1C0B24FF0000823072BD5702AD5
:103E700007D0DDF820C08CF0100C5CEA0B0C05D0EC
:103E80000EE040238DF82430012308E050EA0103BE
:103E900006D030238DF824308DF825200223984653
:103EA000DDF820C08CF0080C5CEA0B0C0BD150EA5A
:103EB000010301D1630706D530238DF824304FF07C
:103EC0000108A9F10109582A04D038A20B9208AAC6
:103ED0000A920BE03AA2F9E75B46089AFCF7C8F9A8
:103EE0000B9B9B5C0A9A521E0A92137050EA0102C5
:103EF000F2D10A98ADEB000000F1200B600702D56B
:103F000024F4803401E04FF00109D94502DDA9EB2A
:103F10000B0000E0002000EB0B0141440890AAEBED
:103F2000010AE00306D4DDE90F232146504600F0E4
:103F300063F806444FF0000908E009A911F80900E8
:103F4000DDE90F12904709F10109761CC145F4DB48
:103F5000E0030CD5DDE90F232146504600F04CF874
:103F6000064404E0DDE90F1230209047761C0899E2
:103F7000481E08900029F5DC08E00A980A990078A4
:103F8000491C0A91DDE90F129047761CBBF1000134
:103F9000ABF1010BF1DC21465046DDE90F2300F0C7
:103FA00019F806446D1C1BE6092801003031323334
:103FB0003435363738396162636465660000000065
:103FC000303132333435363738394142434445464F
:103FD000000000002DE9F041044600251E4617466A
:103FE000880404D405E039462020B0476D1C641EC7
:103FF000F9D52846BDE8F0812DE9F04104460025B9
:104000001E469046C80301D5302700E020278804CB
:1040100004D505E041463846B0476D1C641EF9D50D
:104020002846BDE8F0810A68531C0B601070704789
:1040300013B54FF6FF73012269460248FEF78AFA6C
:1040400000981CBD88000020FDF7AEFCFFF70AFABF
:10405000FEF732FBFEF7B0FBFEF7D2FB01220E4962
:104060000E48FEF739FA0E4C012291032046FDF767
:1040700087FC0CA0FFF76EFD0220FEF711FC4FF449
:10408000004500BFFEF7DEFB6420FDF785FB2946F7
:104090002046FDF771FCF5E70000002088000020B5
:1040A000000C014068656C6C6F20776F726C640D5A
:1040B0000A000000428803889A420DD042887F2A75
:1040C00008D04288521C42804288001D105C087053
:1040D000012070470022F6E70020704702887F2AFF
:1040E0000BD00288521C0280028843889A4206D074
:1040F00030F8042B1154012070470022F3E70188A7
:1041000021B10188491E0180002070477F21FAE714
:104110000000000000000000010203040607080977
:1041200000000000010203046000210800CCCCBBA9
:10413000BB000000E442000899160008B4420008E1
:104140004C43000851260008C8420008DC42000821
:1041500051260008C842000898420008C1370008EC
:10416000684200083C430008CD32000824430008A0
:1041700068430008F93A0008044300086442000854
:10418000C316000840430008504300087D3700086C
:104190008442000880420008C5320008EC42000852
:1041A00038430008B33200086C4300085C43000841
:1041B000BF3200088043000860430008B93200089D
:1041C0009443000854430008C1160008A0420008A8
:1041D000AC43000800000000AC4300080040404031
:1041E00040404040404041414141414040404040CA
:1041F0004040404040404040404040404005020276
:104200000202020202020202020202020220202034
:104210002020202020202002020202020202909090
:10422000909090901010101010101010101010108E
:1042300010101010101010100202020202028888E2
:1042400088888888080808080808080808080808EE
:1042500008080808080808080202020240000000D6
:10426000DD41000869640000546F67676C65732066
:104270004C6F6767696E67204D6F646500000000D2
:104280007266000054657374206120626974206F47
:1042900066206120726567006C6F6767696E6700F2
:1042A00045786974207468652050726F6772616D1B
:1042B00000000000436C65617273207468652073B0
:1042C000637265656E00000052756E2048656C7003
:1042D0002046756E6374696F6E00000068656C70CF
:1042E00000000000636C656172000000526561644B
:1042F0007320746865206672616D652062756666FC
:104300006572000057726974657320612076616C74
:10431000756520746F2061207265676973746572BA
:104320000000000052656164732061207265676956
:104330007374657200000000726D7200727200008A
:104340006765742069642773000000006C730000C7
:10435000627400006578697400000000726D74007A
:10436000726D7274000000007277000052756E204A
:10437000696E20726177206D6F646520727800002D
:1043800052756E20696E20726177206D6F646520B2
:104390007478000052756E20696E20726177206D0E
:1043A0006F64652072782F747800000000000000B0
:1043B000D04300080000002030000000A43B0008AB
:1043C0000044000830000020D0060000B43B000884
:1043D0000000000000A24A0400000063E80300009F
:1043E00000010200000000000000000001000000C9
:1043F00010000000000000000000000000000000AD
:04000005080000ED02
:00000001FF
